{
  "_format": "hh-sol-artifact-1",
  "contractName": "MarketSentiment",
  "sourceName": "contracts/MarketSentiment.sol",
  "abi": [
    {
      "inputs": [],
      "stateMutability": "nonpayable",
      "type": "constructor"
    },
    {
      "anonymous": false,
      "inputs": [
        {
          "indexed": false,
          "internalType": "uint256",
          "name": "up",
          "type": "uint256"
        },
        {
          "indexed": false,
          "internalType": "uint256",
          "name": "down",
          "type": "uint256"
        },
        {
          "indexed": false,
          "internalType": "address",
          "name": "voter",
          "type": "address"
        },
        {
          "indexed": false,
          "internalType": "string",
          "name": "ticker",
          "type": "string"
        }
      ],
      "name": "tickerupdated",
      "type": "event"
    },
    {
      "inputs": [
        {
          "internalType": "string",
          "name": "_ticker",
          "type": "string"
        }
      ],
      "name": "addTicker",
      "outputs": [],
      "stateMutability": "nonpayable",
      "type": "function"
    },
    {
      "inputs": [
        {
          "internalType": "string",
          "name": "_ticker",
          "type": "string"
        }
      ],
      "name": "getVotes",
      "outputs": [
        {
          "internalType": "uint256",
          "name": "up",
          "type": "uint256"
        },
        {
          "internalType": "uint256",
          "name": "down",
          "type": "uint256"
        }
      ],
      "stateMutability": "view",
      "type": "function"
    },
    {
      "inputs": [],
      "name": "owner",
      "outputs": [
        {
          "internalType": "address",
          "name": "",
          "type": "address"
        }
      ],
      "stateMutability": "view",
      "type": "function"
    },
    {
      "inputs": [
        {
          "internalType": "uint256",
          "name": "",
          "type": "uint256"
        }
      ],
      "name": "tickersArray",
      "outputs": [
        {
          "internalType": "string",
          "name": "",
          "type": "string"
        }
      ],
      "stateMutability": "view",
      "type": "function"
    },
    {
      "inputs": [
        {
          "internalType": "string",
          "name": "_ticker",
          "type": "string"
        },
        {
          "internalType": "bool",
          "name": "_vote",
          "type": "bool"
        }
      ],
      "name": "vote",
      "outputs": [],
      "stateMutability": "nonpayable",
      "type": "function"
    }
  ],
  "bytecode": "0x608060405234801561001057600080fd5b50336000806101000a81548173ffffffffffffffffffffffffffffffffffffffff021916908373ffffffffffffffffffffffffffffffffffffffff160217905550610ddc806100606000396000f3fe608060405234801561001057600080fd5b50600436106100575760003560e01c806327d3410c1461005c5780635f6449ad1461007857806376152ab214610094578063805265e5146100c45780638da5cb5b146100f5575b600080fd5b6100766004803603810190610071919061073d565b610113565b005b610092600480360381019061008d91906106f4565b610333565b005b6100ae60048036038101906100a99190610799565b610440565b6040516100bb919061090c565b60405180910390f35b6100de60048036038101906100d991906106f4565b6104ec565b6040516100ec9291906109ae565b60405180910390f35b6100fd610593565b60405161010a91906108f1565b60405180910390f35b60028260405161012391906108da565b908152602001604051809103902060000160009054906101000a900460ff16610181576040517f08c379a00000000000000000000000000000000000000000000000000000000081526004016101789061092e565b60405180910390fd5b60028260405161019191906108da565b908152602001604051809103902060030160003373ffffffffffffffffffffffffffffffffffffffff1673ffffffffffffffffffffffffffffffffffffffff16815260200190815260200160002060009054906101000a900460ff161561022d576040517f08c379a00000000000000000000000000000000000000000000000000000000081526004016102249061098e565b60405180910390fd5b600060028360405161023f91906108da565b9081526020016040518091039020905060018160030160003373ffffffffffffffffffffffffffffffffffffffff1673ffffffffffffffffffffffffffffffffffffffff16815260200190815260200160002060006101000a81548160ff02191690831515021790555081156102ce578060010160008154809291906102c490610b8d565b91905055506102e9565b8060020160008154809291906102e390610b8d565b91905055505b7f3f02e6da2d3423fb90c77b85e149620faac44650a2293529132014c94c8a68d881600101548260020154338660405161032694939291906109d7565b60405180910390a1505050565b60008054906101000a900473ffffffffffffffffffffffffffffffffffffffff1673ffffffffffffffffffffffffffffffffffffffff163373ffffffffffffffffffffffffffffffffffffffff16146103c1576040517f08c379a00000000000000000000000000000000000000000000000000000000081526004016103b89061094e565b60405180910390fd5b60006002826040516103d391906108da565b9081526020016040518091039020905060018160000160006101000a81548160ff02191690831515021790555060018290806001815401808255809150506001900390600052602060002001600090919091909150908051906020019061043b9291906105b7565b505050565b6001818154811061045057600080fd5b90600052602060002001600091509050805461046b90610b2a565b80601f016020809104026020016040519081016040528092919081815260200182805461049790610b2a565b80156104e45780601f106104b9576101008083540402835291602001916104e4565b820191906000526020600020905b8154815290600101906020018083116104c757829003601f168201915b505050505081565b6000806002836040516104ff91906108da565b908152602001604051809103902060000160009054906101000a900460ff1661055d576040517f08c379a00000000000000000000000000000000000000000000000000000000081526004016105549061096e565b60405180910390fd5b600060028460405161056f91906108da565b90815260200160405180910390209050806001015481600201549250925050915091565b60008054906101000a900473ffffffffffffffffffffffffffffffffffffffff1681565b8280546105c390610b2a565b90600052602060002090601f0160209004810192826105e5576000855561062c565b82601f106105fe57805160ff191683800117855561062c565b8280016001018555821561062c579182015b8281111561062b578251825591602001919060010190610610565b5b509050610639919061063d565b5090565b5b8082111561065657600081600090555060010161063e565b5090565b600061066d61066884610a48565b610a23565b90508281526020810184848401111561068957610688610c68565b5b610694848285610ae8565b509392505050565b6000813590506106ab81610d78565b92915050565b600082601f8301126106c6576106c5610c63565b5b81356106d684826020860161065a565b91505092915050565b6000813590506106ee81610d8f565b92915050565b60006020828403121561070a57610709610c72565b5b600082013567ffffffffffffffff81111561072857610727610c6d565b5b610734848285016106b1565b91505092915050565b6000806040838503121561075457610753610c72565b5b600083013567ffffffffffffffff81111561077257610771610c6d565b5b61077e858286016106b1565b925050602061078f8582860161069c565b9150509250929050565b6000602082840312156107af576107ae610c72565b5b60006107bd848285016106df565b91505092915050565b6107cf81610aa0565b82525050565b60006107e082610a79565b6107ea8185610a84565b93506107fa818560208601610af7565b61080381610c77565b840191505092915050565b600061081982610a79565b6108238185610a95565b9350610833818560208601610af7565b80840191505092915050565b600061084c601783610a84565b915061085782610c88565b602082019050919050565b600061086f602183610a84565b915061087a82610cb1565b604082019050919050565b6000610892601683610a84565b915061089d82610d00565b602082019050919050565b60006108b5602483610a84565b91506108c082610d29565b604082019050919050565b6108d481610ade565b82525050565b60006108e6828461080e565b915081905092915050565b600060208201905061090660008301846107c6565b92915050565b6000602082019050818103600083015261092681846107d5565b905092915050565b600060208201905081810360008301526109478161083f565b9050919050565b6000602082019050818103600083015261096781610862565b9050919050565b6000602082019050818103600083015261098781610885565b9050919050565b600060208201905081810360008301526109a7816108a8565b9050919050565b60006040820190506109c360008301856108cb565b6109d060208301846108cb565b9392505050565b60006080820190506109ec60008301876108cb565b6109f960208301866108cb565b610a0660408301856107c6565b8181036060830152610a1881846107d5565b905095945050505050565b6000610a2d610a3e565b9050610a398282610b5c565b919050565b6000604051905090565b600067ffffffffffffffff821115610a6357610a62610c34565b5b610a6c82610c77565b9050602081019050919050565b600081519050919050565b600082825260208201905092915050565b600081905092915050565b6000610aab82610abe565b9050919050565b60008115159050919050565b600073ffffffffffffffffffffffffffffffffffffffff82169050919050565b6000819050919050565b82818337600083830152505050565b60005b83811015610b15578082015181840152602081019050610afa565b83811115610b24576000848401525b50505050565b60006002820490506001821680610b4257607f821691505b60208210811415610b5657610b55610c05565b5b50919050565b610b6582610c77565b810181811067ffffffffffffffff82111715610b8457610b83610c34565b5b80604052505050565b6000610b9882610ade565b91507fffffffffffffffffffffffffffffffffffffffffffffffffffffffffffffffff821415610bcb57610bca610bd6565b5b600182019050919050565b7f4e487b7100000000000000000000000000000000000000000000000000000000600052601160045260246000fd5b7f4e487b7100000000000000000000000000000000000000000000000000000000600052602260045260246000fd5b7f4e487b7100000000000000000000000000000000000000000000000000000000600052604160045260246000fd5b600080fd5b600080fd5b600080fd5b600080fd5b6000601f19601f8301169050919050565b7f43616e277420766f7465206f6e207468697320636f696e000000000000000000600082015250565b7f4f6e6c7920746865206f776e65722063616e20637265617465207469636b657260008201527f7300000000000000000000000000000000000000000000000000000000000000602082015250565b7f4e6f2073756368205469636b657220446566696e656400000000000000000000600082015250565b7f596f75206861766520616c726561647920766f74656420666f7220746869732060008201527f636f696e00000000000000000000000000000000000000000000000000000000602082015250565b610d8181610ab2565b8114610d8c57600080fd5b50565b610d9881610ade565b8114610da357600080fd5b5056fea264697066735822122094f1dee1a1bdb1146cda423463b043b2621340fe711677f0f97b9b3ecf11e7a964736f6c63430008070033",
  "linkReferences": {},
  "deployedLinkReferences": {}
}