{
  "contracts/MarketSentiment.sol": {
    "MarketSentiment": {
      "abi": [
        {
          "inputs": [],
          "stateMutability": "nonpayable",
          "type": "constructor"
        },
        {
          "anonymous": false,
          "inputs": [
            {
              "indexed": false,
              "internalType": "uint256",
              "name": "up",
              "type": "uint256"
            },
            {
              "indexed": false,
              "internalType": "uint256",
              "name": "down",
              "type": "uint256"
            },
            {
              "indexed": false,
              "internalType": "address",
              "name": "voter",
              "type": "address"
            },
            {
              "indexed": false,
              "internalType": "string",
              "name": "ticker",
              "type": "string"
            }
          ],
          "name": "tickerupdated",
          "type": "event"
        },
        {
          "inputs": [
            {
              "internalType": "string",
              "name": "_ticker",
              "type": "string"
            }
          ],
          "name": "addTicker",
          "outputs": [],
          "stateMutability": "nonpayable",
          "type": "function"
        },
        {
          "inputs": [
            {
              "internalType": "string",
              "name": "_ticker",
              "type": "string"
            }
          ],
          "name": "getVotes",
          "outputs": [
            {
              "internalType": "uint256",
              "name": "up",
              "type": "uint256"
            },
            {
              "internalType": "uint256",
              "name": "down",
              "type": "uint256"
            }
          ],
          "stateMutability": "view",
          "type": "function"
        },
        {
          "inputs": [],
          "name": "owner",
          "outputs": [
            {
              "internalType": "address",
              "name": "",
              "type": "address"
            }
          ],
          "stateMutability": "view",
          "type": "function"
        },
        {
          "inputs": [
            {
              "internalType": "uint256",
              "name": "",
              "type": "uint256"
            }
          ],
          "name": "tickersArray",
          "outputs": [
            {
              "internalType": "string",
              "name": "",
              "type": "string"
            }
          ],
          "stateMutability": "view",
          "type": "function"
        },
        {
          "inputs": [
            {
              "internalType": "string",
              "name": "_ticker",
              "type": "string"
            },
            {
              "internalType": "bool",
              "name": "_vote",
              "type": "bool"
            }
          ],
          "name": "vote",
          "outputs": [],
          "stateMutability": "nonpayable",
          "type": "function"
        }
      ],
      "evm": {
        "bytecode": {
          "linkReferences": {},
          "object": "608060405234801561001057600080fd5b50336000806101000a81548173ffffffffffffffffffffffffffffffffffffffff021916908373ffffffffffffffffffffffffffffffffffffffff160217905550610ddc806100606000396000f3fe608060405234801561001057600080fd5b50600436106100575760003560e01c806327d3410c1461005c5780635f6449ad1461007857806376152ab214610094578063805265e5146100c45780638da5cb5b146100f5575b600080fd5b6100766004803603810190610071919061073d565b610113565b005b610092600480360381019061008d91906106f4565b610333565b005b6100ae60048036038101906100a99190610799565b610440565b6040516100bb919061090c565b60405180910390f35b6100de60048036038101906100d991906106f4565b6104ec565b6040516100ec9291906109ae565b60405180910390f35b6100fd610593565b60405161010a91906108f1565b60405180910390f35b60028260405161012391906108da565b908152602001604051809103902060000160009054906101000a900460ff16610181576040517f08c379a00000000000000000000000000000000000000000000000000000000081526004016101789061092e565b60405180910390fd5b60028260405161019191906108da565b908152602001604051809103902060030160003373ffffffffffffffffffffffffffffffffffffffff1673ffffffffffffffffffffffffffffffffffffffff16815260200190815260200160002060009054906101000a900460ff161561022d576040517f08c379a00000000000000000000000000000000000000000000000000000000081526004016102249061098e565b60405180910390fd5b600060028360405161023f91906108da565b9081526020016040518091039020905060018160030160003373ffffffffffffffffffffffffffffffffffffffff1673ffffffffffffffffffffffffffffffffffffffff16815260200190815260200160002060006101000a81548160ff02191690831515021790555081156102ce578060010160008154809291906102c490610b8d565b91905055506102e9565b8060020160008154809291906102e390610b8d565b91905055505b7f3f02e6da2d3423fb90c77b85e149620faac44650a2293529132014c94c8a68d881600101548260020154338660405161032694939291906109d7565b60405180910390a1505050565b60008054906101000a900473ffffffffffffffffffffffffffffffffffffffff1673ffffffffffffffffffffffffffffffffffffffff163373ffffffffffffffffffffffffffffffffffffffff16146103c1576040517f08c379a00000000000000000000000000000000000000000000000000000000081526004016103b89061094e565b60405180910390fd5b60006002826040516103d391906108da565b9081526020016040518091039020905060018160000160006101000a81548160ff02191690831515021790555060018290806001815401808255809150506001900390600052602060002001600090919091909150908051906020019061043b9291906105b7565b505050565b6001818154811061045057600080fd5b90600052602060002001600091509050805461046b90610b2a565b80601f016020809104026020016040519081016040528092919081815260200182805461049790610b2a565b80156104e45780601f106104b9576101008083540402835291602001916104e4565b820191906000526020600020905b8154815290600101906020018083116104c757829003601f168201915b505050505081565b6000806002836040516104ff91906108da565b908152602001604051809103902060000160009054906101000a900460ff1661055d576040517f08c379a00000000000000000000000000000000000000000000000000000000081526004016105549061096e565b60405180910390fd5b600060028460405161056f91906108da565b90815260200160405180910390209050806001015481600201549250925050915091565b60008054906101000a900473ffffffffffffffffffffffffffffffffffffffff1681565b8280546105c390610b2a565b90600052602060002090601f0160209004810192826105e5576000855561062c565b82601f106105fe57805160ff191683800117855561062c565b8280016001018555821561062c579182015b8281111561062b578251825591602001919060010190610610565b5b509050610639919061063d565b5090565b5b8082111561065657600081600090555060010161063e565b5090565b600061066d61066884610a48565b610a23565b90508281526020810184848401111561068957610688610c68565b5b610694848285610ae8565b509392505050565b6000813590506106ab81610d78565b92915050565b600082601f8301126106c6576106c5610c63565b5b81356106d684826020860161065a565b91505092915050565b6000813590506106ee81610d8f565b92915050565b60006020828403121561070a57610709610c72565b5b600082013567ffffffffffffffff81111561072857610727610c6d565b5b610734848285016106b1565b91505092915050565b6000806040838503121561075457610753610c72565b5b600083013567ffffffffffffffff81111561077257610771610c6d565b5b61077e858286016106b1565b925050602061078f8582860161069c565b9150509250929050565b6000602082840312156107af576107ae610c72565b5b60006107bd848285016106df565b91505092915050565b6107cf81610aa0565b82525050565b60006107e082610a79565b6107ea8185610a84565b93506107fa818560208601610af7565b61080381610c77565b840191505092915050565b600061081982610a79565b6108238185610a95565b9350610833818560208601610af7565b80840191505092915050565b600061084c601783610a84565b915061085782610c88565b602082019050919050565b600061086f602183610a84565b915061087a82610cb1565b604082019050919050565b6000610892601683610a84565b915061089d82610d00565b602082019050919050565b60006108b5602483610a84565b91506108c082610d29565b604082019050919050565b6108d481610ade565b82525050565b60006108e6828461080e565b915081905092915050565b600060208201905061090660008301846107c6565b92915050565b6000602082019050818103600083015261092681846107d5565b905092915050565b600060208201905081810360008301526109478161083f565b9050919050565b6000602082019050818103600083015261096781610862565b9050919050565b6000602082019050818103600083015261098781610885565b9050919050565b600060208201905081810360008301526109a7816108a8565b9050919050565b60006040820190506109c360008301856108cb565b6109d060208301846108cb565b9392505050565b60006080820190506109ec60008301876108cb565b6109f960208301866108cb565b610a0660408301856107c6565b8181036060830152610a1881846107d5565b905095945050505050565b6000610a2d610a3e565b9050610a398282610b5c565b919050565b6000604051905090565b600067ffffffffffffffff821115610a6357610a62610c34565b5b610a6c82610c77565b9050602081019050919050565b600081519050919050565b600082825260208201905092915050565b600081905092915050565b6000610aab82610abe565b9050919050565b60008115159050919050565b600073ffffffffffffffffffffffffffffffffffffffff82169050919050565b6000819050919050565b82818337600083830152505050565b60005b83811015610b15578082015181840152602081019050610afa565b83811115610b24576000848401525b50505050565b60006002820490506001821680610b4257607f821691505b60208210811415610b5657610b55610c05565b5b50919050565b610b6582610c77565b810181811067ffffffffffffffff82111715610b8457610b83610c34565b5b80604052505050565b6000610b9882610ade565b91507fffffffffffffffffffffffffffffffffffffffffffffffffffffffffffffffff821415610bcb57610bca610bd6565b5b600182019050919050565b7f4e487b7100000000000000000000000000000000000000000000000000000000600052601160045260246000fd5b7f4e487b7100000000000000000000000000000000000000000000000000000000600052602260045260246000fd5b7f4e487b7100000000000000000000000000000000000000000000000000000000600052604160045260246000fd5b600080fd5b600080fd5b600080fd5b600080fd5b6000601f19601f8301169050919050565b7f43616e277420766f7465206f6e207468697320636f696e000000000000000000600082015250565b7f4f6e6c7920746865206f776e65722063616e20637265617465207469636b657260008201527f7300000000000000000000000000000000000000000000000000000000000000602082015250565b7f4e6f2073756368205469636b657220446566696e656400000000000000000000600082015250565b7f596f75206861766520616c726561647920766f74656420666f7220746869732060008201527f636f696e00000000000000000000000000000000000000000000000000000000602082015250565b610d8181610ab2565b8114610d8c57600080fd5b50565b610d9881610ade565b8114610da357600080fd5b5056fea264697066735822122094f1dee1a1bdb1146cda423463b043b2621340fe711677f0f97b9b3ecf11e7a964736f6c63430008070033",
          "opcodes": "PUSH1 0x80 PUSH1 0x40 MSTORE CALLVALUE DUP1 ISZERO PUSH2 0x10 JUMPI PUSH1 0x0 DUP1 REVERT JUMPDEST POP CALLER PUSH1 0x0 DUP1 PUSH2 0x100 EXP DUP2 SLOAD DUP2 PUSH20 0xFFFFFFFFFFFFFFFFFFFFFFFFFFFFFFFFFFFFFFFF MUL NOT AND SWAP1 DUP4 PUSH20 0xFFFFFFFFFFFFFFFFFFFFFFFFFFFFFFFFFFFFFFFF AND MUL OR SWAP1 SSTORE POP PUSH2 0xDDC DUP1 PUSH2 0x60 PUSH1 0x0 CODECOPY PUSH1 0x0 RETURN INVALID PUSH1 0x80 PUSH1 0x40 MSTORE CALLVALUE DUP1 ISZERO PUSH2 0x10 JUMPI PUSH1 0x0 DUP1 REVERT JUMPDEST POP PUSH1 0x4 CALLDATASIZE LT PUSH2 0x57 JUMPI PUSH1 0x0 CALLDATALOAD PUSH1 0xE0 SHR DUP1 PUSH4 0x27D3410C EQ PUSH2 0x5C JUMPI DUP1 PUSH4 0x5F6449AD EQ PUSH2 0x78 JUMPI DUP1 PUSH4 0x76152AB2 EQ PUSH2 0x94 JUMPI DUP1 PUSH4 0x805265E5 EQ PUSH2 0xC4 JUMPI DUP1 PUSH4 0x8DA5CB5B EQ PUSH2 0xF5 JUMPI JUMPDEST PUSH1 0x0 DUP1 REVERT JUMPDEST PUSH2 0x76 PUSH1 0x4 DUP1 CALLDATASIZE SUB DUP2 ADD SWAP1 PUSH2 0x71 SWAP2 SWAP1 PUSH2 0x73D JUMP JUMPDEST PUSH2 0x113 JUMP JUMPDEST STOP JUMPDEST PUSH2 0x92 PUSH1 0x4 DUP1 CALLDATASIZE SUB DUP2 ADD SWAP1 PUSH2 0x8D SWAP2 SWAP1 PUSH2 0x6F4 JUMP JUMPDEST PUSH2 0x333 JUMP JUMPDEST STOP JUMPDEST PUSH2 0xAE PUSH1 0x4 DUP1 CALLDATASIZE SUB DUP2 ADD SWAP1 PUSH2 0xA9 SWAP2 SWAP1 PUSH2 0x799 JUMP JUMPDEST PUSH2 0x440 JUMP JUMPDEST PUSH1 0x40 MLOAD PUSH2 0xBB SWAP2 SWAP1 PUSH2 0x90C JUMP JUMPDEST PUSH1 0x40 MLOAD DUP1 SWAP2 SUB SWAP1 RETURN JUMPDEST PUSH2 0xDE PUSH1 0x4 DUP1 CALLDATASIZE SUB DUP2 ADD SWAP1 PUSH2 0xD9 SWAP2 SWAP1 PUSH2 0x6F4 JUMP JUMPDEST PUSH2 0x4EC JUMP JUMPDEST PUSH1 0x40 MLOAD PUSH2 0xEC SWAP3 SWAP2 SWAP1 PUSH2 0x9AE JUMP JUMPDEST PUSH1 0x40 MLOAD DUP1 SWAP2 SUB SWAP1 RETURN JUMPDEST PUSH2 0xFD PUSH2 0x593 JUMP JUMPDEST PUSH1 0x40 MLOAD PUSH2 0x10A SWAP2 SWAP1 PUSH2 0x8F1 JUMP JUMPDEST PUSH1 0x40 MLOAD DUP1 SWAP2 SUB SWAP1 RETURN JUMPDEST PUSH1 0x2 DUP3 PUSH1 0x40 MLOAD PUSH2 0x123 SWAP2 SWAP1 PUSH2 0x8DA JUMP JUMPDEST SWAP1 DUP2 MSTORE PUSH1 0x20 ADD PUSH1 0x40 MLOAD DUP1 SWAP2 SUB SWAP1 KECCAK256 PUSH1 0x0 ADD PUSH1 0x0 SWAP1 SLOAD SWAP1 PUSH2 0x100 EXP SWAP1 DIV PUSH1 0xFF AND PUSH2 0x181 JUMPI PUSH1 0x40 MLOAD PUSH32 0x8C379A000000000000000000000000000000000000000000000000000000000 DUP2 MSTORE PUSH1 0x4 ADD PUSH2 0x178 SWAP1 PUSH2 0x92E JUMP JUMPDEST PUSH1 0x40 MLOAD DUP1 SWAP2 SUB SWAP1 REVERT JUMPDEST PUSH1 0x2 DUP3 PUSH1 0x40 MLOAD PUSH2 0x191 SWAP2 SWAP1 PUSH2 0x8DA JUMP JUMPDEST SWAP1 DUP2 MSTORE PUSH1 0x20 ADD PUSH1 0x40 MLOAD DUP1 SWAP2 SUB SWAP1 KECCAK256 PUSH1 0x3 ADD PUSH1 0x0 CALLER PUSH20 0xFFFFFFFFFFFFFFFFFFFFFFFFFFFFFFFFFFFFFFFF AND PUSH20 0xFFFFFFFFFFFFFFFFFFFFFFFFFFFFFFFFFFFFFFFF AND DUP2 MSTORE PUSH1 0x20 ADD SWAP1 DUP2 MSTORE PUSH1 0x20 ADD PUSH1 0x0 KECCAK256 PUSH1 0x0 SWAP1 SLOAD SWAP1 PUSH2 0x100 EXP SWAP1 DIV PUSH1 0xFF AND ISZERO PUSH2 0x22D JUMPI PUSH1 0x40 MLOAD PUSH32 0x8C379A000000000000000000000000000000000000000000000000000000000 DUP2 MSTORE PUSH1 0x4 ADD PUSH2 0x224 SWAP1 PUSH2 0x98E JUMP JUMPDEST PUSH1 0x40 MLOAD DUP1 SWAP2 SUB SWAP1 REVERT JUMPDEST PUSH1 0x0 PUSH1 0x2 DUP4 PUSH1 0x40 MLOAD PUSH2 0x23F SWAP2 SWAP1 PUSH2 0x8DA JUMP JUMPDEST SWAP1 DUP2 MSTORE PUSH1 0x20 ADD PUSH1 0x40 MLOAD DUP1 SWAP2 SUB SWAP1 KECCAK256 SWAP1 POP PUSH1 0x1 DUP2 PUSH1 0x3 ADD PUSH1 0x0 CALLER PUSH20 0xFFFFFFFFFFFFFFFFFFFFFFFFFFFFFFFFFFFFFFFF AND PUSH20 0xFFFFFFFFFFFFFFFFFFFFFFFFFFFFFFFFFFFFFFFF AND DUP2 MSTORE PUSH1 0x20 ADD SWAP1 DUP2 MSTORE PUSH1 0x20 ADD PUSH1 0x0 KECCAK256 PUSH1 0x0 PUSH2 0x100 EXP DUP2 SLOAD DUP2 PUSH1 0xFF MUL NOT AND SWAP1 DUP4 ISZERO ISZERO MUL OR SWAP1 SSTORE POP DUP2 ISZERO PUSH2 0x2CE JUMPI DUP1 PUSH1 0x1 ADD PUSH1 0x0 DUP2 SLOAD DUP1 SWAP3 SWAP2 SWAP1 PUSH2 0x2C4 SWAP1 PUSH2 0xB8D JUMP JUMPDEST SWAP2 SWAP1 POP SSTORE POP PUSH2 0x2E9 JUMP JUMPDEST DUP1 PUSH1 0x2 ADD PUSH1 0x0 DUP2 SLOAD DUP1 SWAP3 SWAP2 SWAP1 PUSH2 0x2E3 SWAP1 PUSH2 0xB8D JUMP JUMPDEST SWAP2 SWAP1 POP SSTORE POP JUMPDEST PUSH32 0x3F02E6DA2D3423FB90C77B85E149620FAAC44650A2293529132014C94C8A68D8 DUP2 PUSH1 0x1 ADD SLOAD DUP3 PUSH1 0x2 ADD SLOAD CALLER DUP7 PUSH1 0x40 MLOAD PUSH2 0x326 SWAP5 SWAP4 SWAP3 SWAP2 SWAP1 PUSH2 0x9D7 JUMP JUMPDEST PUSH1 0x40 MLOAD DUP1 SWAP2 SUB SWAP1 LOG1 POP POP POP JUMP JUMPDEST PUSH1 0x0 DUP1 SLOAD SWAP1 PUSH2 0x100 EXP SWAP1 DIV PUSH20 0xFFFFFFFFFFFFFFFFFFFFFFFFFFFFFFFFFFFFFFFF AND PUSH20 0xFFFFFFFFFFFFFFFFFFFFFFFFFFFFFFFFFFFFFFFF AND CALLER PUSH20 0xFFFFFFFFFFFFFFFFFFFFFFFFFFFFFFFFFFFFFFFF AND EQ PUSH2 0x3C1 JUMPI PUSH1 0x40 MLOAD PUSH32 0x8C379A000000000000000000000000000000000000000000000000000000000 DUP2 MSTORE PUSH1 0x4 ADD PUSH2 0x3B8 SWAP1 PUSH2 0x94E JUMP JUMPDEST PUSH1 0x40 MLOAD DUP1 SWAP2 SUB SWAP1 REVERT JUMPDEST PUSH1 0x0 PUSH1 0x2 DUP3 PUSH1 0x40 MLOAD PUSH2 0x3D3 SWAP2 SWAP1 PUSH2 0x8DA JUMP JUMPDEST SWAP1 DUP2 MSTORE PUSH1 0x20 ADD PUSH1 0x40 MLOAD DUP1 SWAP2 SUB SWAP1 KECCAK256 SWAP1 POP PUSH1 0x1 DUP2 PUSH1 0x0 ADD PUSH1 0x0 PUSH2 0x100 EXP DUP2 SLOAD DUP2 PUSH1 0xFF MUL NOT AND SWAP1 DUP4 ISZERO ISZERO MUL OR SWAP1 SSTORE POP PUSH1 0x1 DUP3 SWAP1 DUP1 PUSH1 0x1 DUP2 SLOAD ADD DUP1 DUP3 SSTORE DUP1 SWAP2 POP POP PUSH1 0x1 SWAP1 SUB SWAP1 PUSH1 0x0 MSTORE PUSH1 0x20 PUSH1 0x0 KECCAK256 ADD PUSH1 0x0 SWAP1 SWAP2 SWAP1 SWAP2 SWAP1 SWAP2 POP SWAP1 DUP1 MLOAD SWAP1 PUSH1 0x20 ADD SWAP1 PUSH2 0x43B SWAP3 SWAP2 SWAP1 PUSH2 0x5B7 JUMP JUMPDEST POP POP POP JUMP JUMPDEST PUSH1 0x1 DUP2 DUP2 SLOAD DUP2 LT PUSH2 0x450 JUMPI PUSH1 0x0 DUP1 REVERT JUMPDEST SWAP1 PUSH1 0x0 MSTORE PUSH1 0x20 PUSH1 0x0 KECCAK256 ADD PUSH1 0x0 SWAP2 POP SWAP1 POP DUP1 SLOAD PUSH2 0x46B SWAP1 PUSH2 0xB2A JUMP JUMPDEST DUP1 PUSH1 0x1F ADD PUSH1 0x20 DUP1 SWAP2 DIV MUL PUSH1 0x20 ADD PUSH1 0x40 MLOAD SWAP1 DUP2 ADD PUSH1 0x40 MSTORE DUP1 SWAP3 SWAP2 SWAP1 DUP2 DUP2 MSTORE PUSH1 0x20 ADD DUP3 DUP1 SLOAD PUSH2 0x497 SWAP1 PUSH2 0xB2A JUMP JUMPDEST DUP1 ISZERO PUSH2 0x4E4 JUMPI DUP1 PUSH1 0x1F LT PUSH2 0x4B9 JUMPI PUSH2 0x100 DUP1 DUP4 SLOAD DIV MUL DUP4 MSTORE SWAP2 PUSH1 0x20 ADD SWAP2 PUSH2 0x4E4 JUMP JUMPDEST DUP3 ADD SWAP2 SWAP1 PUSH1 0x0 MSTORE PUSH1 0x20 PUSH1 0x0 KECCAK256 SWAP1 JUMPDEST DUP2 SLOAD DUP2 MSTORE SWAP1 PUSH1 0x1 ADD SWAP1 PUSH1 0x20 ADD DUP1 DUP4 GT PUSH2 0x4C7 JUMPI DUP3 SWAP1 SUB PUSH1 0x1F AND DUP3 ADD SWAP2 JUMPDEST POP POP POP POP POP DUP2 JUMP JUMPDEST PUSH1 0x0 DUP1 PUSH1 0x2 DUP4 PUSH1 0x40 MLOAD PUSH2 0x4FF SWAP2 SWAP1 PUSH2 0x8DA JUMP JUMPDEST SWAP1 DUP2 MSTORE PUSH1 0x20 ADD PUSH1 0x40 MLOAD DUP1 SWAP2 SUB SWAP1 KECCAK256 PUSH1 0x0 ADD PUSH1 0x0 SWAP1 SLOAD SWAP1 PUSH2 0x100 EXP SWAP1 DIV PUSH1 0xFF AND PUSH2 0x55D JUMPI PUSH1 0x40 MLOAD PUSH32 0x8C379A000000000000000000000000000000000000000000000000000000000 DUP2 MSTORE PUSH1 0x4 ADD PUSH2 0x554 SWAP1 PUSH2 0x96E JUMP JUMPDEST PUSH1 0x40 MLOAD DUP1 SWAP2 SUB SWAP1 REVERT JUMPDEST PUSH1 0x0 PUSH1 0x2 DUP5 PUSH1 0x40 MLOAD PUSH2 0x56F SWAP2 SWAP1 PUSH2 0x8DA JUMP JUMPDEST SWAP1 DUP2 MSTORE PUSH1 0x20 ADD PUSH1 0x40 MLOAD DUP1 SWAP2 SUB SWAP1 KECCAK256 SWAP1 POP DUP1 PUSH1 0x1 ADD SLOAD DUP2 PUSH1 0x2 ADD SLOAD SWAP3 POP SWAP3 POP POP SWAP2 POP SWAP2 JUMP JUMPDEST PUSH1 0x0 DUP1 SLOAD SWAP1 PUSH2 0x100 EXP SWAP1 DIV PUSH20 0xFFFFFFFFFFFFFFFFFFFFFFFFFFFFFFFFFFFFFFFF AND DUP2 JUMP JUMPDEST DUP3 DUP1 SLOAD PUSH2 0x5C3 SWAP1 PUSH2 0xB2A JUMP JUMPDEST SWAP1 PUSH1 0x0 MSTORE PUSH1 0x20 PUSH1 0x0 KECCAK256 SWAP1 PUSH1 0x1F ADD PUSH1 0x20 SWAP1 DIV DUP2 ADD SWAP3 DUP3 PUSH2 0x5E5 JUMPI PUSH1 0x0 DUP6 SSTORE PUSH2 0x62C JUMP JUMPDEST DUP3 PUSH1 0x1F LT PUSH2 0x5FE JUMPI DUP1 MLOAD PUSH1 0xFF NOT AND DUP4 DUP1 ADD OR DUP6 SSTORE PUSH2 0x62C JUMP JUMPDEST DUP3 DUP1 ADD PUSH1 0x1 ADD DUP6 SSTORE DUP3 ISZERO PUSH2 0x62C JUMPI SWAP2 DUP3 ADD JUMPDEST DUP3 DUP2 GT ISZERO PUSH2 0x62B JUMPI DUP3 MLOAD DUP3 SSTORE SWAP2 PUSH1 0x20 ADD SWAP2 SWAP1 PUSH1 0x1 ADD SWAP1 PUSH2 0x610 JUMP JUMPDEST JUMPDEST POP SWAP1 POP PUSH2 0x639 SWAP2 SWAP1 PUSH2 0x63D JUMP JUMPDEST POP SWAP1 JUMP JUMPDEST JUMPDEST DUP1 DUP3 GT ISZERO PUSH2 0x656 JUMPI PUSH1 0x0 DUP2 PUSH1 0x0 SWAP1 SSTORE POP PUSH1 0x1 ADD PUSH2 0x63E JUMP JUMPDEST POP SWAP1 JUMP JUMPDEST PUSH1 0x0 PUSH2 0x66D PUSH2 0x668 DUP5 PUSH2 0xA48 JUMP JUMPDEST PUSH2 0xA23 JUMP JUMPDEST SWAP1 POP DUP3 DUP2 MSTORE PUSH1 0x20 DUP2 ADD DUP5 DUP5 DUP5 ADD GT ISZERO PUSH2 0x689 JUMPI PUSH2 0x688 PUSH2 0xC68 JUMP JUMPDEST JUMPDEST PUSH2 0x694 DUP5 DUP3 DUP6 PUSH2 0xAE8 JUMP JUMPDEST POP SWAP4 SWAP3 POP POP POP JUMP JUMPDEST PUSH1 0x0 DUP2 CALLDATALOAD SWAP1 POP PUSH2 0x6AB DUP2 PUSH2 0xD78 JUMP JUMPDEST SWAP3 SWAP2 POP POP JUMP JUMPDEST PUSH1 0x0 DUP3 PUSH1 0x1F DUP4 ADD SLT PUSH2 0x6C6 JUMPI PUSH2 0x6C5 PUSH2 0xC63 JUMP JUMPDEST JUMPDEST DUP2 CALLDATALOAD PUSH2 0x6D6 DUP5 DUP3 PUSH1 0x20 DUP7 ADD PUSH2 0x65A JUMP JUMPDEST SWAP2 POP POP SWAP3 SWAP2 POP POP JUMP JUMPDEST PUSH1 0x0 DUP2 CALLDATALOAD SWAP1 POP PUSH2 0x6EE DUP2 PUSH2 0xD8F JUMP JUMPDEST SWAP3 SWAP2 POP POP JUMP JUMPDEST PUSH1 0x0 PUSH1 0x20 DUP3 DUP5 SUB SLT ISZERO PUSH2 0x70A JUMPI PUSH2 0x709 PUSH2 0xC72 JUMP JUMPDEST JUMPDEST PUSH1 0x0 DUP3 ADD CALLDATALOAD PUSH8 0xFFFFFFFFFFFFFFFF DUP2 GT ISZERO PUSH2 0x728 JUMPI PUSH2 0x727 PUSH2 0xC6D JUMP JUMPDEST JUMPDEST PUSH2 0x734 DUP5 DUP3 DUP6 ADD PUSH2 0x6B1 JUMP JUMPDEST SWAP2 POP POP SWAP3 SWAP2 POP POP JUMP JUMPDEST PUSH1 0x0 DUP1 PUSH1 0x40 DUP4 DUP6 SUB SLT ISZERO PUSH2 0x754 JUMPI PUSH2 0x753 PUSH2 0xC72 JUMP JUMPDEST JUMPDEST PUSH1 0x0 DUP4 ADD CALLDATALOAD PUSH8 0xFFFFFFFFFFFFFFFF DUP2 GT ISZERO PUSH2 0x772 JUMPI PUSH2 0x771 PUSH2 0xC6D JUMP JUMPDEST JUMPDEST PUSH2 0x77E DUP6 DUP3 DUP7 ADD PUSH2 0x6B1 JUMP JUMPDEST SWAP3 POP POP PUSH1 0x20 PUSH2 0x78F DUP6 DUP3 DUP7 ADD PUSH2 0x69C JUMP JUMPDEST SWAP2 POP POP SWAP3 POP SWAP3 SWAP1 POP JUMP JUMPDEST PUSH1 0x0 PUSH1 0x20 DUP3 DUP5 SUB SLT ISZERO PUSH2 0x7AF JUMPI PUSH2 0x7AE PUSH2 0xC72 JUMP JUMPDEST JUMPDEST PUSH1 0x0 PUSH2 0x7BD DUP5 DUP3 DUP6 ADD PUSH2 0x6DF JUMP JUMPDEST SWAP2 POP POP SWAP3 SWAP2 POP POP JUMP JUMPDEST PUSH2 0x7CF DUP2 PUSH2 0xAA0 JUMP JUMPDEST DUP3 MSTORE POP POP JUMP JUMPDEST PUSH1 0x0 PUSH2 0x7E0 DUP3 PUSH2 0xA79 JUMP JUMPDEST PUSH2 0x7EA DUP2 DUP6 PUSH2 0xA84 JUMP JUMPDEST SWAP4 POP PUSH2 0x7FA DUP2 DUP6 PUSH1 0x20 DUP7 ADD PUSH2 0xAF7 JUMP JUMPDEST PUSH2 0x803 DUP2 PUSH2 0xC77 JUMP JUMPDEST DUP5 ADD SWAP2 POP POP SWAP3 SWAP2 POP POP JUMP JUMPDEST PUSH1 0x0 PUSH2 0x819 DUP3 PUSH2 0xA79 JUMP JUMPDEST PUSH2 0x823 DUP2 DUP6 PUSH2 0xA95 JUMP JUMPDEST SWAP4 POP PUSH2 0x833 DUP2 DUP6 PUSH1 0x20 DUP7 ADD PUSH2 0xAF7 JUMP JUMPDEST DUP1 DUP5 ADD SWAP2 POP POP SWAP3 SWAP2 POP POP JUMP JUMPDEST PUSH1 0x0 PUSH2 0x84C PUSH1 0x17 DUP4 PUSH2 0xA84 JUMP JUMPDEST SWAP2 POP PUSH2 0x857 DUP3 PUSH2 0xC88 JUMP JUMPDEST PUSH1 0x20 DUP3 ADD SWAP1 POP SWAP2 SWAP1 POP JUMP JUMPDEST PUSH1 0x0 PUSH2 0x86F PUSH1 0x21 DUP4 PUSH2 0xA84 JUMP JUMPDEST SWAP2 POP PUSH2 0x87A DUP3 PUSH2 0xCB1 JUMP JUMPDEST PUSH1 0x40 DUP3 ADD SWAP1 POP SWAP2 SWAP1 POP JUMP JUMPDEST PUSH1 0x0 PUSH2 0x892 PUSH1 0x16 DUP4 PUSH2 0xA84 JUMP JUMPDEST SWAP2 POP PUSH2 0x89D DUP3 PUSH2 0xD00 JUMP JUMPDEST PUSH1 0x20 DUP3 ADD SWAP1 POP SWAP2 SWAP1 POP JUMP JUMPDEST PUSH1 0x0 PUSH2 0x8B5 PUSH1 0x24 DUP4 PUSH2 0xA84 JUMP JUMPDEST SWAP2 POP PUSH2 0x8C0 DUP3 PUSH2 0xD29 JUMP JUMPDEST PUSH1 0x40 DUP3 ADD SWAP1 POP SWAP2 SWAP1 POP JUMP JUMPDEST PUSH2 0x8D4 DUP2 PUSH2 0xADE JUMP JUMPDEST DUP3 MSTORE POP POP JUMP JUMPDEST PUSH1 0x0 PUSH2 0x8E6 DUP3 DUP5 PUSH2 0x80E JUMP JUMPDEST SWAP2 POP DUP2 SWAP1 POP SWAP3 SWAP2 POP POP JUMP JUMPDEST PUSH1 0x0 PUSH1 0x20 DUP3 ADD SWAP1 POP PUSH2 0x906 PUSH1 0x0 DUP4 ADD DUP5 PUSH2 0x7C6 JUMP JUMPDEST SWAP3 SWAP2 POP POP JUMP JUMPDEST PUSH1 0x0 PUSH1 0x20 DUP3 ADD SWAP1 POP DUP2 DUP2 SUB PUSH1 0x0 DUP4 ADD MSTORE PUSH2 0x926 DUP2 DUP5 PUSH2 0x7D5 JUMP JUMPDEST SWAP1 POP SWAP3 SWAP2 POP POP JUMP JUMPDEST PUSH1 0x0 PUSH1 0x20 DUP3 ADD SWAP1 POP DUP2 DUP2 SUB PUSH1 0x0 DUP4 ADD MSTORE PUSH2 0x947 DUP2 PUSH2 0x83F JUMP JUMPDEST SWAP1 POP SWAP2 SWAP1 POP JUMP JUMPDEST PUSH1 0x0 PUSH1 0x20 DUP3 ADD SWAP1 POP DUP2 DUP2 SUB PUSH1 0x0 DUP4 ADD MSTORE PUSH2 0x967 DUP2 PUSH2 0x862 JUMP JUMPDEST SWAP1 POP SWAP2 SWAP1 POP JUMP JUMPDEST PUSH1 0x0 PUSH1 0x20 DUP3 ADD SWAP1 POP DUP2 DUP2 SUB PUSH1 0x0 DUP4 ADD MSTORE PUSH2 0x987 DUP2 PUSH2 0x885 JUMP JUMPDEST SWAP1 POP SWAP2 SWAP1 POP JUMP JUMPDEST PUSH1 0x0 PUSH1 0x20 DUP3 ADD SWAP1 POP DUP2 DUP2 SUB PUSH1 0x0 DUP4 ADD MSTORE PUSH2 0x9A7 DUP2 PUSH2 0x8A8 JUMP JUMPDEST SWAP1 POP SWAP2 SWAP1 POP JUMP JUMPDEST PUSH1 0x0 PUSH1 0x40 DUP3 ADD SWAP1 POP PUSH2 0x9C3 PUSH1 0x0 DUP4 ADD DUP6 PUSH2 0x8CB JUMP JUMPDEST PUSH2 0x9D0 PUSH1 0x20 DUP4 ADD DUP5 PUSH2 0x8CB JUMP JUMPDEST SWAP4 SWAP3 POP POP POP JUMP JUMPDEST PUSH1 0x0 PUSH1 0x80 DUP3 ADD SWAP1 POP PUSH2 0x9EC PUSH1 0x0 DUP4 ADD DUP8 PUSH2 0x8CB JUMP JUMPDEST PUSH2 0x9F9 PUSH1 0x20 DUP4 ADD DUP7 PUSH2 0x8CB JUMP JUMPDEST PUSH2 0xA06 PUSH1 0x40 DUP4 ADD DUP6 PUSH2 0x7C6 JUMP JUMPDEST DUP2 DUP2 SUB PUSH1 0x60 DUP4 ADD MSTORE PUSH2 0xA18 DUP2 DUP5 PUSH2 0x7D5 JUMP JUMPDEST SWAP1 POP SWAP6 SWAP5 POP POP POP POP POP JUMP JUMPDEST PUSH1 0x0 PUSH2 0xA2D PUSH2 0xA3E JUMP JUMPDEST SWAP1 POP PUSH2 0xA39 DUP3 DUP3 PUSH2 0xB5C JUMP JUMPDEST SWAP2 SWAP1 POP JUMP JUMPDEST PUSH1 0x0 PUSH1 0x40 MLOAD SWAP1 POP SWAP1 JUMP JUMPDEST PUSH1 0x0 PUSH8 0xFFFFFFFFFFFFFFFF DUP3 GT ISZERO PUSH2 0xA63 JUMPI PUSH2 0xA62 PUSH2 0xC34 JUMP JUMPDEST JUMPDEST PUSH2 0xA6C DUP3 PUSH2 0xC77 JUMP JUMPDEST SWAP1 POP PUSH1 0x20 DUP2 ADD SWAP1 POP SWAP2 SWAP1 POP JUMP JUMPDEST PUSH1 0x0 DUP2 MLOAD SWAP1 POP SWAP2 SWAP1 POP JUMP JUMPDEST PUSH1 0x0 DUP3 DUP3 MSTORE PUSH1 0x20 DUP3 ADD SWAP1 POP SWAP3 SWAP2 POP POP JUMP JUMPDEST PUSH1 0x0 DUP2 SWAP1 POP SWAP3 SWAP2 POP POP JUMP JUMPDEST PUSH1 0x0 PUSH2 0xAAB DUP3 PUSH2 0xABE JUMP JUMPDEST SWAP1 POP SWAP2 SWAP1 POP JUMP JUMPDEST PUSH1 0x0 DUP2 ISZERO ISZERO SWAP1 POP SWAP2 SWAP1 POP JUMP JUMPDEST PUSH1 0x0 PUSH20 0xFFFFFFFFFFFFFFFFFFFFFFFFFFFFFFFFFFFFFFFF DUP3 AND SWAP1 POP SWAP2 SWAP1 POP JUMP JUMPDEST PUSH1 0x0 DUP2 SWAP1 POP SWAP2 SWAP1 POP JUMP JUMPDEST DUP3 DUP2 DUP4 CALLDATACOPY PUSH1 0x0 DUP4 DUP4 ADD MSTORE POP POP POP JUMP JUMPDEST PUSH1 0x0 JUMPDEST DUP4 DUP2 LT ISZERO PUSH2 0xB15 JUMPI DUP1 DUP3 ADD MLOAD DUP2 DUP5 ADD MSTORE PUSH1 0x20 DUP2 ADD SWAP1 POP PUSH2 0xAFA JUMP JUMPDEST DUP4 DUP2 GT ISZERO PUSH2 0xB24 JUMPI PUSH1 0x0 DUP5 DUP5 ADD MSTORE JUMPDEST POP POP POP POP JUMP JUMPDEST PUSH1 0x0 PUSH1 0x2 DUP3 DIV SWAP1 POP PUSH1 0x1 DUP3 AND DUP1 PUSH2 0xB42 JUMPI PUSH1 0x7F DUP3 AND SWAP2 POP JUMPDEST PUSH1 0x20 DUP3 LT DUP2 EQ ISZERO PUSH2 0xB56 JUMPI PUSH2 0xB55 PUSH2 0xC05 JUMP JUMPDEST JUMPDEST POP SWAP2 SWAP1 POP JUMP JUMPDEST PUSH2 0xB65 DUP3 PUSH2 0xC77 JUMP JUMPDEST DUP2 ADD DUP2 DUP2 LT PUSH8 0xFFFFFFFFFFFFFFFF DUP3 GT OR ISZERO PUSH2 0xB84 JUMPI PUSH2 0xB83 PUSH2 0xC34 JUMP JUMPDEST JUMPDEST DUP1 PUSH1 0x40 MSTORE POP POP POP JUMP JUMPDEST PUSH1 0x0 PUSH2 0xB98 DUP3 PUSH2 0xADE JUMP JUMPDEST SWAP2 POP PUSH32 0xFFFFFFFFFFFFFFFFFFFFFFFFFFFFFFFFFFFFFFFFFFFFFFFFFFFFFFFFFFFFFFFF DUP3 EQ ISZERO PUSH2 0xBCB JUMPI PUSH2 0xBCA PUSH2 0xBD6 JUMP JUMPDEST JUMPDEST PUSH1 0x1 DUP3 ADD SWAP1 POP SWAP2 SWAP1 POP JUMP JUMPDEST PUSH32 0x4E487B7100000000000000000000000000000000000000000000000000000000 PUSH1 0x0 MSTORE PUSH1 0x11 PUSH1 0x4 MSTORE PUSH1 0x24 PUSH1 0x0 REVERT JUMPDEST PUSH32 0x4E487B7100000000000000000000000000000000000000000000000000000000 PUSH1 0x0 MSTORE PUSH1 0x22 PUSH1 0x4 MSTORE PUSH1 0x24 PUSH1 0x0 REVERT JUMPDEST PUSH32 0x4E487B7100000000000000000000000000000000000000000000000000000000 PUSH1 0x0 MSTORE PUSH1 0x41 PUSH1 0x4 MSTORE PUSH1 0x24 PUSH1 0x0 REVERT JUMPDEST PUSH1 0x0 DUP1 REVERT JUMPDEST PUSH1 0x0 DUP1 REVERT JUMPDEST PUSH1 0x0 DUP1 REVERT JUMPDEST PUSH1 0x0 DUP1 REVERT JUMPDEST PUSH1 0x0 PUSH1 0x1F NOT PUSH1 0x1F DUP4 ADD AND SWAP1 POP SWAP2 SWAP1 POP JUMP JUMPDEST PUSH32 0x43616E277420766F7465206F6E207468697320636F696E000000000000000000 PUSH1 0x0 DUP3 ADD MSTORE POP JUMP JUMPDEST PUSH32 0x4F6E6C7920746865206F776E65722063616E20637265617465207469636B6572 PUSH1 0x0 DUP3 ADD MSTORE PUSH32 0x7300000000000000000000000000000000000000000000000000000000000000 PUSH1 0x20 DUP3 ADD MSTORE POP JUMP JUMPDEST PUSH32 0x4E6F2073756368205469636B657220446566696E656400000000000000000000 PUSH1 0x0 DUP3 ADD MSTORE POP JUMP JUMPDEST PUSH32 0x596F75206861766520616C726561647920766F74656420666F72207468697320 PUSH1 0x0 DUP3 ADD MSTORE PUSH32 0x636F696E00000000000000000000000000000000000000000000000000000000 PUSH1 0x20 DUP3 ADD MSTORE POP JUMP JUMPDEST PUSH2 0xD81 DUP2 PUSH2 0xAB2 JUMP JUMPDEST DUP2 EQ PUSH2 0xD8C JUMPI PUSH1 0x0 DUP1 REVERT JUMPDEST POP JUMP JUMPDEST PUSH2 0xD98 DUP2 PUSH2 0xADE JUMP JUMPDEST DUP2 EQ PUSH2 0xDA3 JUMPI PUSH1 0x0 DUP1 REVERT JUMPDEST POP JUMP INVALID LOG2 PUSH5 0x6970667358 0x22 SLT KECCAK256 SWAP5 CALL 0xDE 0xE1 LOG1 0xBD 0xB1 EQ PUSH13 0xDA423463B043B2621340FE7116 PUSH24 0xF0F97B9B3ECF11E7A964736F6C6343000807003300000000 "
        },
        "methodIdentifiers": {
          "addTicker(string)": "5f6449ad",
          "getVotes(string)": "805265e5",
          "owner()": "8da5cb5b",
          "tickersArray(uint256)": "76152ab2",
          "vote(string,bool)": "27d3410c"
        }
      }
    }
  }
}